{
  "_format": "hh-sol-artifact-1",
  "contractName": "VotingContract",
  "sourceName": "contracts/VotingContract.sol",
  "abi": [
    {
      "inputs": [],
      "stateMutability": "nonpayable",
      "type": "constructor"
    },
    {
      "anonymous": false,
      "inputs": [
        {
          "indexed": true,
          "internalType": "address",
          "name": "admin",
          "type": "address"
        }
      ],
      "name": "AdminAdded",
      "type": "event"
    },
    {
      "anonymous": false,
      "inputs": [
        {
          "indexed": true,
          "internalType": "address",
          "name": "admin",
          "type": "address"
        }
      ],
      "name": "AdminRemoved",
      "type": "event"
    },
    {
      "anonymous": false,
      "inputs": [
        {
          "indexed": true,
          "internalType": "uint256",
          "name": "electionId",
          "type": "uint256"
        },
        {
          "indexed": true,
          "internalType": "uint256",
          "name": "candidateId",
          "type": "uint256"
        },
        {
          "indexed": false,
          "internalType": "string",
          "name": "name",
          "type": "string"
        },
        {
          "indexed": false,
          "internalType": "string",
          "name": "party",
          "type": "string"
        }
      ],
      "name": "CandidateAdded",
      "type": "event"
    },
    {
      "anonymous": false,
      "inputs": [
        {
          "indexed": true,
          "internalType": "uint256",
          "name": "electionId",
          "type": "uint256"
        },
        {
          "indexed": false,
          "internalType": "string",
          "name": "name",
          "type": "string"
        },
        {
          "indexed": false,
          "internalType": "uint256",
          "name": "startTime",
          "type": "uint256"
        },
        {
          "indexed": false,
          "internalType": "uint256",
          "name": "endTime",
          "type": "uint256"
        },
        {
          "indexed": true,
          "internalType": "address",
          "name": "admin",
          "type": "address"
        }
      ],
      "name": "ElectionCreated",
      "type": "event"
    },
    {
      "anonymous": false,
      "inputs": [
        {
          "indexed": true,
          "internalType": "uint256",
          "name": "electionId",
          "type": "uint256"
        }
      ],
      "name": "ElectionEnded",
      "type": "event"
    },
    {
      "anonymous": false,
      "inputs": [
        {
          "indexed": true,
          "internalType": "uint256",
          "name": "electionId",
          "type": "uint256"
        },
        {
          "indexed": true,
          "internalType": "uint256",
          "name": "candidateId",
          "type": "uint256"
        },
        {
          "indexed": true,
          "internalType": "address",
          "name": "voter",
          "type": "address"
        },
        {
          "indexed": false,
          "internalType": "bytes32",
          "name": "voteHash",
          "type": "bytes32"
        },
        {
          "indexed": false,
          "internalType": "uint256",
          "name": "timestamp",
          "type": "uint256"
        }
      ],
      "name": "VoteCast",
      "type": "event"
    },
    {
      "anonymous": false,
      "inputs": [
        {
          "indexed": true,
          "internalType": "address",
          "name": "voter",
          "type": "address"
        }
      ],
      "name": "VoterRegistered",
      "type": "event"
    },
    {
      "inputs": [
        {
          "internalType": "address",
          "name": "_admin",
          "type": "address"
        }
      ],
      "name": "addAdmin",
      "outputs": [],
      "stateMutability": "nonpayable",
      "type": "function"
    },
    {
      "inputs": [
        {
          "internalType": "uint256",
          "name": "_electionId",
          "type": "uint256"
        },
        {
          "internalType": "string",
          "name": "_name",
          "type": "string"
        },
        {
          "internalType": "string",
          "name": "_party",
          "type": "string"
        }
      ],
      "name": "addCandidate",
      "outputs": [
        {
          "internalType": "uint256",
          "name": "",
          "type": "uint256"
        }
      ],
      "stateMutability": "nonpayable",
      "type": "function"
    },
    {
      "inputs": [
        {
          "internalType": "address",
          "name": "",
          "type": "address"
        }
      ],
      "name": "admins",
      "outputs": [
        {
          "internalType": "bool",
          "name": "",
          "type": "bool"
        }
      ],
      "stateMutability": "view",
      "type": "function"
    },
    {
      "inputs": [
        {
          "internalType": "uint256",
          "name": "",
          "type": "uint256"
        },
        {
          "internalType": "uint256",
          "name": "",
          "type": "uint256"
        }
      ],
      "name": "candidates",
      "outputs": [
        {
          "internalType": "uint256",
          "name": "id",
          "type": "uint256"
        },
        {
          "internalType": "uint256",
          "name": "electionId",
          "type": "uint256"
        },
        {
          "internalType": "string",
          "name": "name",
          "type": "string"
        },
        {
          "internalType": "string",
          "name": "party",
          "type": "string"
        },
        {
          "internalType": "uint256",
          "name": "voteCount",
          "type": "uint256"
        },
        {
          "internalType": "bool",
          "name": "isActive",
          "type": "bool"
        }
      ],
      "stateMutability": "view",
      "type": "function"
    },
    {
      "inputs": [
        {
          "internalType": "uint256",
          "name": "_electionId",
          "type": "uint256"
        },
        {
          "internalType": "uint256",
          "name": "_candidateId",
          "type": "uint256"
        }
      ],
      "name": "castVote",
      "outputs": [],
      "stateMutability": "nonpayable",
      "type": "function"
    },
    {
      "inputs": [
        {
          "internalType": "uint256",
          "name": "_electionId",
          "type": "uint256"
        },
        {
          "internalType": "address",
          "name": "_voter",
          "type": "address"
        }
      ],
      "name": "checkVoted",
      "outputs": [
        {
          "internalType": "bool",
          "name": "",
          "type": "bool"
        }
      ],
      "stateMutability": "view",
      "type": "function"
    },
    {
      "inputs": [
        {
          "internalType": "string",
          "name": "_name",
          "type": "string"
        },
        {
          "internalType": "string",
          "name": "_description",
          "type": "string"
        },
        {
          "internalType": "uint256",
          "name": "_startTime",
          "type": "uint256"
        },
        {
          "internalType": "uint256",
          "name": "_endTime",
          "type": "uint256"
        }
      ],
      "name": "createElection",
      "outputs": [
        {
          "internalType": "uint256",
          "name": "",
          "type": "uint256"
        }
      ],
      "stateMutability": "nonpayable",
      "type": "function"
    },
    {
      "inputs": [],
      "name": "electionCount",
      "outputs": [
        {
          "internalType": "uint256",
          "name": "",
          "type": "uint256"
        }
      ],
      "stateMutability": "view",
      "type": "function"
    },
    {
      "inputs": [
        {
          "internalType": "uint256",
          "name": "",
          "type": "uint256"
        }
      ],
      "name": "elections",
      "outputs": [
        {
          "internalType": "uint256",
          "name": "id",
          "type": "uint256"
        },
        {
          "internalType": "string",
          "name": "name",
          "type": "string"
        },
        {
          "internalType": "string",
          "name": "description",
          "type": "string"
        },
        {
          "internalType": "uint256",
          "name": "startTime",
          "type": "uint256"
        },
        {
          "internalType": "uint256",
          "name": "endTime",
          "type": "uint256"
        },
        {
          "internalType": "bool",
          "name": "isActive",
          "type": "bool"
        },
        {
          "internalType": "address",
          "name": "admin",
          "type": "address"
        },
        {
          "internalType": "uint256",
          "name": "totalVotes",
          "type": "uint256"
        },
        {
          "internalType": "uint256",
          "name": "candidateCount",
          "type": "uint256"
        }
      ],
      "stateMutability": "view",
      "type": "function"
    },
    {
      "inputs": [
        {
          "internalType": "uint256",
          "name": "_electionId",
          "type": "uint256"
        }
      ],
      "name": "endElection",
      "outputs": [],
      "stateMutability": "nonpayable",
      "type": "function"
    },
    {
      "inputs": [
        {
          "internalType": "uint256",
          "name": "_electionId",
          "type": "uint256"
        }
      ],
      "name": "getAllCandidates",
      "outputs": [
        {
          "components": [
            {
              "internalType": "uint256",
              "name": "id",
              "type": "uint256"
            },
            {
              "internalType": "uint256",
              "name": "electionId",
              "type": "uint256"
            },
            {
              "internalType": "string",
              "name": "name",
              "type": "string"
            },
            {
              "internalType": "string",
              "name": "party",
              "type": "string"
            },
            {
              "internalType": "uint256",
              "name": "voteCount",
              "type": "uint256"
            },
            {
              "internalType": "bool",
              "name": "isActive",
              "type": "bool"
            }
          ],
          "internalType": "struct VotingContract.Candidate[]",
          "name": "",
          "type": "tuple[]"
        }
      ],
      "stateMutability": "view",
      "type": "function"
    },
    {
      "inputs": [
        {
          "internalType": "uint256",
          "name": "_electionId",
          "type": "uint256"
        },
        {
          "internalType": "uint256",
          "name": "_candidateId",
          "type": "uint256"
        }
      ],
      "name": "getCandidate",
      "outputs": [
        {
          "internalType": "uint256",
          "name": "id",
          "type": "uint256"
        },
        {
          "internalType": "string",
          "name": "name",
          "type": "string"
        },
        {
          "internalType": "string",
          "name": "party",
          "type": "string"
        },
        {
          "internalType": "uint256",
          "name": "voteCount",
          "type": "uint256"
        },
        {
          "internalType": "bool",
          "name": "isActive",
          "type": "bool"
        }
      ],
      "stateMutability": "view",
      "type": "function"
    },
    {
      "inputs": [
        {
          "internalType": "uint256",
          "name": "_electionId",
          "type": "uint256"
        }
      ],
      "name": "getElection",
      "outputs": [
        {
          "internalType": "uint256",
          "name": "id",
          "type": "uint256"
        },
        {
          "internalType": "string",
          "name": "name",
          "type": "string"
        },
        {
          "internalType": "string",
          "name": "description",
          "type": "string"
        },
        {
          "internalType": "uint256",
          "name": "startTime",
          "type": "uint256"
        },
        {
          "internalType": "uint256",
          "name": "endTime",
          "type": "uint256"
        },
        {
          "internalType": "bool",
          "name": "isActive",
          "type": "bool"
        },
        {
          "internalType": "uint256",
          "name": "totalVotes",
          "type": "uint256"
        },
        {
          "internalType": "uint256",
          "name": "candidateCount",
          "type": "uint256"
        }
      ],
      "stateMutability": "view",
      "type": "function"
    },
    {
      "inputs": [
        {
          "internalType": "uint256",
          "name": "_electionId",
          "type": "uint256"
        }
      ],
      "name": "getElectionStatus",
      "outputs": [
        {
          "internalType": "string",
          "name": "",
          "type": "string"
        }
      ],
      "stateMutability": "view",
      "type": "function"
    },
    {
      "inputs": [
        {
          "internalType": "uint256",
          "name": "_electionId",
          "type": "uint256"
        },
        {
          "internalType": "address",
          "name": "_voter",
          "type": "address"
        }
      ],
      "name": "getVoteReceipt",
      "outputs": [
        {
          "internalType": "uint256",
          "name": "electionId",
          "type": "uint256"
        },
        {
          "internalType": "uint256",
          "name": "candidateId",
          "type": "uint256"
        },
        {
          "internalType": "uint256",
          "name": "timestamp",
          "type": "uint256"
        },
        {
          "internalType": "bytes32",
          "name": "voteHash",
          "type": "bytes32"
        }
      ],
      "stateMutability": "view",
      "type": "function"
    },
    {
      "inputs": [
        {
          "internalType": "uint256",
          "name": "",
          "type": "uint256"
        },
        {
          "internalType": "address",
          "name": "",
          "type": "address"
        }
      ],
      "name": "hasVoted",
      "outputs": [
        {
          "internalType": "bool",
          "name": "",
          "type": "bool"
        }
      ],
      "stateMutability": "view",
      "type": "function"
    },
    {
      "inputs": [
        {
          "internalType": "address",
          "name": "_admin",
          "type": "address"
        }
      ],
      "name": "isAdmin",
      "outputs": [
        {
          "internalType": "bool",
          "name": "",
          "type": "bool"
        }
      ],
      "stateMutability": "view",
      "type": "function"
    },
    {
      "inputs": [
        {
          "internalType": "address",
          "name": "_voter",
          "type": "address"
        }
      ],
      "name": "isRegisteredVoter",
      "outputs": [
        {
          "internalType": "bool",
          "name": "",
          "type": "bool"
        }
      ],
      "stateMutability": "view",
      "type": "function"
    },
    {
      "inputs": [],
      "name": "owner",
      "outputs": [
        {
          "internalType": "address",
          "name": "",
          "type": "address"
        }
      ],
      "stateMutability": "view",
      "type": "function"
    },
    {
      "inputs": [
        {
          "internalType": "address",
          "name": "_voter",
          "type": "address"
        }
      ],
      "name": "registerVoter",
      "outputs": [],
      "stateMutability": "nonpayable",
      "type": "function"
    },
    {
      "inputs": [
        {
          "internalType": "address",
          "name": "",
          "type": "address"
        }
      ],
      "name": "registeredVoters",
      "outputs": [
        {
          "internalType": "bool",
          "name": "",
          "type": "bool"
        }
      ],
      "stateMutability": "view",
      "type": "function"
    },
    {
      "inputs": [
        {
          "internalType": "address",
          "name": "_admin",
          "type": "address"
        }
      ],
      "name": "removeAdmin",
      "outputs": [],
      "stateMutability": "nonpayable",
      "type": "function"
    },
    {
      "inputs": [],
      "name": "totalVotesCast",
      "outputs": [
        {
          "internalType": "uint256",
          "name": "",
          "type": "uint256"
        }
      ],
      "stateMutability": "view",
      "type": "function"
    },
    {
      "inputs": [
        {
          "internalType": "uint256",
          "name": "_electionId",
          "type": "uint256"
        },
        {
          "internalType": "bytes32",
          "name": "_voteHash",
          "type": "bytes32"
        }
      ],
      "name": "verifyVote",
      "outputs": [
        {
          "internalType": "bool",
          "name": "",
          "type": "bool"
        }
      ],
      "stateMutability": "view",
      "type": "function"
    },
    {
      "inputs": [
        {
          "internalType": "uint256",
          "name": "",
          "type": "uint256"
        },
        {
          "internalType": "address",
          "name": "",
          "type": "address"
        }
      ],
      "name": "voterReceipts",
      "outputs": [
        {
          "internalType": "address",
          "name": "voter",
          "type": "address"
        },
        {
          "internalType": "uint256",
          "name": "electionId",
          "type": "uint256"
        },
        {
          "internalType": "uint256",
          "name": "candidateId",
          "type": "uint256"
        },
        {
          "internalType": "uint256",
          "name": "timestamp",
          "type": "uint256"
        },
        {
          "internalType": "bytes32",
          "name": "voteHash",
          "type": "bytes32"
        }
      ],
      "stateMutability": "view",
      "type": "function"
    }
  ],
  "bytecode": "0x608060405234801561001057600080fd5b50600080546001600160a01b0319163390811782558152600860205260409020805460ff191660011790556124c08061004a6000396000f3fe608060405234801561001057600080fd5b50600436106101735760003560e01c80637de14242116100de5780639c98bcbb11610097578063c287fd4211610071578063c287fd421461040a578063da36cffe1461048e578063e6c62efc146104ba578063f9ded646146104cd57600080fd5b80639c98bcbb146103ad5780639d710777146103c0578063a9ff6df1146103e757600080fd5b80637de14242146102df5780637de418d5146103045780638da5cb5b1461030d578063920f80eb14610338578063984de1e91461036b578063997d2830146103a457600080fd5b8063429b62e511610130578063429b62e51461020e57806343859632146102315780634bd464481461025f5780635e6fef011461028357806370480275146102ab5780637ad36e84146102be57600080fd5b80631785f53c14610178578063196f05b01461018d57806324785b9e146101b557806324d7806c146101d55780632c0a3f89146101e857806338db6dd3146101fb575b600080fd5b61018b610186366004611d74565b6104ed565b005b6101a061019b366004611d96565b610614565b60405190151581526020015b60405180910390f35b6101c86101c3366004611db8565b61063a565b6040516101ac9190611e17565b6101a06101e3366004611d74565b61073f565b61018b6101f6366004611d96565b610776565b61018b610209366004611d74565b610c16565b6101a061021c366004611d74565b60086020526000908152604090205460ff1681565b6101a061023f366004611e2a565b600560209081526000928352604080842090915290825290205460ff1681565b61027261026d366004611d96565b610d57565b6040516101ac959493929190611e56565b610296610291366004611db8565b610ec3565b6040516101ac99989796959493929190611e9b565b61018b6102b9366004611d74565b611029565b6102d16102cc366004611faa565b611143565b6040519081526020016101ac565b6102f26102ed366004611d96565b6113b3565b6040516101ac9695949392919061201e565b6102d160025481565b600054610320906001600160a01b031681565b6040516001600160a01b0390911681526020016101ac565b61034b610346366004611e2a565b611507565b6040805194855260208501939093529183015260608201526080016101ac565b6101a0610379366004611e2a565b60009182526005602090815260408084206001600160a01b0393909316845291905290205460ff1690565b6102d160015481565b61018b6103bb366004611db8565b6115ba565b6103d36103ce366004611db8565b6116c4565b6040516101ac98979695949392919061206a565b6101a06103f5366004611d74565b60076020526000908152604090205460ff1681565b61045c610418366004611e2a565b6006602090815260009283526040808420909152908252902080546001820154600283015460038401546004909401546001600160a01b0390931693919290919085565b604080516001600160a01b0390961686526020860194909452928401919091526060830152608082015260a0016101ac565b6101a061049c366004611d74565b6001600160a01b031660009081526007602052604090205460ff1690565b6102d16104c83660046120c4565b61187f565b6104e06104db366004611db8565b611ab8565b6040516101ac9190612131565b6000546001600160a01b031633146105205760405162461bcd60e51b8152600401610517906121e3565b60405180910390fd5b6000546001600160a01b03908116908216036105745760405162461bcd60e51b815260206004820152601360248201527221b0b73737ba103932b6b7bb329037bbb732b960691b6044820152606401610517565b6001600160a01b03811660009081526008602052604090205460ff166105cb5760405162461bcd60e51b815260206004820152600c60248201526b2737ba1030b71030b236b4b760a11b6044820152606401610517565b6001600160a01b038116600081815260086020526040808220805460ff19169055517fa3b62bc36326052d97ea62d63c3d60308ed4c3ea8ac079dd8499f1e9c4f80c0f9190a250565b600082815260066020908152604080832033845290915290206004015481145b92915050565b60608160008111801561064f57506001548111155b61066b5760405162461bcd60e51b815260040161051790612224565b6000838152600360205260409020600581015460ff166106ab5760405180604001604052806005815260200164195b99195960da1b815250925050610739565b80600301544210156106e057604051806040016040528060088152602001677570636f6d696e6760c01b815250925050610739565b8060040154421115610716576040518060400160405280600981526020016818dbdb5c1b195d195960ba1b815250925050610739565b6040518060400160405280600681526020016561637469766560d01b8152509250505b50919050565b6001600160a01b03811660009081526008602052604081205460ff16806106345750506000546001600160a01b0390811691161490565b3360009081526007602052604090205460ff166107d55760405162461bcd60e51b815260206004820152601760248201527f566f746572206973206e6f7420726567697374657265640000000000000000006044820152606401610517565b816000811180156107e857506001548111155b6108045760405162461bcd60e51b815260040161051790612224565b6000838152600360205260409020600581015484919060ff166108625760405162461bcd60e51b8152602060048201526016602482015275456c656374696f6e206973206e6f742061637469766560501b6044820152606401610517565b80600301544210156108b65760405162461bcd60e51b815260206004820152601860248201527f456c656374696f6e20686173206e6f74207374617274656400000000000000006044820152606401610517565b80600401544211156108ff5760405162461bcd60e51b8152602060048201526012602482015271115b1958dd1a5bdb881a185cc8195b99195960721b6044820152606401610517565b600085815260056020908152604080832033845290915290205460ff16156109695760405162461bcd60e51b815260206004820152601e60248201527f416c726561647920766f74656420696e207468697320656c656374696f6e00006044820152606401610517565b6000858152600360205260409020841580159061098a575080600701548511155b6109ca5760405162461bcd60e51b8152602060048201526011602482015270496e76616c69642063616e64696461746560781b6044820152606401610517565b60008681526004602090815260408083208884529091529020600581015460ff16610a375760405162461bcd60e51b815260206004820152601760248201527f43616e646964617465206973206e6f74206163746976650000000000000000006044820152606401610517565b600033888842610a48600143612271565b60405160609590951b6bffffffffffffffffffffffff1916602086015260348501939093526054840191909152607483015240609482015260b40160408051601f19818403018152918152815160209283012060008b815260058452828120338252909352908220805460ff191660011790556004840180549193509091610acf83612284565b9091555050600683018054906000610ae683612284565b909155505060028054906000610afb83612284565b91905055506040518060a00160405280336001600160a01b0316815260200189815260200188815260200142815260200182815250600660008a81526020019081526020016000206000336001600160a01b03166001600160a01b0316815260200190815260200160002060008201518160000160006101000a8154816001600160a01b0302191690836001600160a01b0316021790555060208201518160010155604082015181600201556060820151816003015560808201518160040155905050336001600160a01b031687897f22e2db8e508ce56e5a71a5b95323949e36aab7684c2d0ee32ef611afbf2f49308442604051610c04929190918252602082015260400190565b60405180910390a45050505050505050565b3360009081526008602052604090205460ff1680610c3e57506000546001600160a01b031633145b610c5a5760405162461bcd60e51b81526004016105179061229d565b6001600160a01b038116610ca25760405162461bcd60e51b815260206004820152600f60248201526e496e76616c6964206164647265737360881b6044820152606401610517565b6001600160a01b03811660009081526007602052604090205460ff1615610d0b5760405162461bcd60e51b815260206004820152601860248201527f566f74657220616c7265616479207265676973746572656400000000000000006044820152606401610517565b6001600160a01b038116600081815260076020526040808220805460ff19166001179055517fb6be2187d059cc2a55fe29e0e503b566e1e0f8c8780096e185429350acffd3dd9190a250565b60008281526004602081815260408084208585529091528220805491810154600582015460028301805460609586958895869591949293600386019260ff16908490610da2906122de565b80601f0160208091040260200160405190810160405280929190818152602001828054610dce906122de565b8015610e1b5780601f10610df057610100808354040283529160200191610e1b565b820191906000526020600020905b815481529060010190602001808311610dfe57829003601f168201915b50505050509350828054610e2e906122de565b80601f0160208091040260200160405190810160405280929190818152602001828054610e5a906122de565b8015610ea75780601f10610e7c57610100808354040283529160200191610ea7565b820191906000526020600020905b815481529060010190602001808311610e8a57829003601f168201915b5050505050925095509550955095509550509295509295909350565b60036020526000908152604090208054600182018054919291610ee5906122de565b80601f0160208091040260200160405190810160405280929190818152602001828054610f11906122de565b8015610f5e5780601f10610f3357610100808354040283529160200191610f5e565b820191906000526020600020905b815481529060010190602001808311610f4157829003601f168201915b505050505090806002018054610f73906122de565b80601f0160208091040260200160405190810160405280929190818152602001828054610f9f906122de565b8015610fec5780601f10610fc157610100808354040283529160200191610fec565b820191906000526020600020905b815481529060010190602001808311610fcf57829003601f168201915b5050505060038301546004840154600585015460068601546007909601549495929491935060ff8116926101009091046001600160a01b03169189565b6000546001600160a01b031633146110535760405162461bcd60e51b8152600401610517906121e3565b6001600160a01b03811661109b5760405162461bcd60e51b815260206004820152600f60248201526e496e76616c6964206164647265737360881b6044820152606401610517565b6001600160a01b03811660009081526008602052604090205460ff16156110f75760405162461bcd60e51b815260206004820152601060248201526f20b63932b0b23c9030b71030b236b4b760811b6044820152606401610517565b6001600160a01b038116600081815260086020526040808220805460ff19166001179055517f44d6d25963f097ad14f29f06854a01f575648a1ef82f30e562ccd3889717e3399190a250565b3360009081526008602052604081205460ff168061116b57506000546001600160a01b031633145b6111875760405162461bcd60e51b81526004016105179061229d565b60008551116111cf5760405162461bcd60e51b81526020600482015260146024820152734e616d652063616e6e6f7420626520656d70747960601b6044820152606401610517565b8183106112135760405162461bcd60e51b8152602060048201526012602482015271496e76616c69642074696d652072616e676560701b6044820152606401610517565b428310156112635760405162461bcd60e51b815260206004820181905260248201527f53746172742074696d65206d75737420626520696e20746865206675747572656044820152606401610517565b6001805490600061127383612284565b909155505060408051610120810182526001805480835260208084018a81528486018a9052606085018990526080850188905260a085018490523360c0860152600060e0860181905261010086018190529283526003909152939020825181559251919291908201906112e69082612361565b50604082015160028201906112fb9082612361565b50606082015160038201556080820151600482015560a082015160058201805460c08501516001600160a81b0319909116921515610100600160a81b031916929092176101006001600160a01b03909316830217905560e08301516006830155909101516007909101556001546040513391907f13ac008e0cdce4387b5f85e53dd6fd03c11f7170f920652af23fea83217055969061139f90899088908890612421565b60405180910390a350600154949350505050565b6004602090815260009283526040808420909152908252902080546001820154600283018054929391926113e6906122de565b80601f0160208091040260200160405190810160405280929190818152602001828054611412906122de565b801561145f5780601f106114345761010080835404028352916020019161145f565b820191906000526020600020905b81548152906001019060200180831161144257829003601f168201915b505050505090806003018054611474906122de565b80601f01602080910402602001604051908101604052809291908181526020018280546114a0906122de565b80156114ed5780601f106114c2576101008083540402835291602001916114ed565b820191906000526020600020905b8154815290600101906020018083116114d057829003601f168201915b50505050600483015460059093015491929160ff16905086565b60008281526005602090815260408083206001600160a01b038516845290915281205481908190819060ff166115755760405162461bcd60e51b8152602060048201526013602482015272159bdd195c881a185cc81b9bdd081d9bdd1959606a1b6044820152606401610517565b5050506000928352506006602090815260408084206001600160a01b039390931684529190529020600181015460028201546003830154600490930154919390929190565b3360009081526008602052604090205460ff16806115e257506000546001600160a01b031633145b6115fe5760405162461bcd60e51b81526004016105179061229d565b8060008111801561161157506001548111155b61162d5760405162461bcd60e51b815260040161051790612224565b6000828152600360205260409020600581015460ff166116885760405162461bcd60e51b8152602060048201526016602482015275115b1958dd1a5bdb88185b1c9958591e48195b99195960521b6044820152606401610517565b60058101805460ff1916905560405183907f562cd572b2ba3b666cd989fc4ca98419ec81e75f04528df9d9d76fdb7807ee7190600090a2505050565b60006060806000806000806000886000811180156116e457506001548111155b6117005760405162461bcd60e51b815260040161051790612224565b6000600360008c8152602001908152602001600020905080600001548160010182600201836003015484600401548560050160009054906101000a900460ff1686600601548760070154868054611756906122de565b80601f0160208091040260200160405190810160405280929190818152602001828054611782906122de565b80156117cf5780601f106117a4576101008083540402835291602001916117cf565b820191906000526020600020905b8154815290600101906020018083116117b257829003601f168201915b505050505096508580546117e2906122de565b80601f016020809104026020016040519081016040528092919081815260200182805461180e906122de565b801561185b5780601f106118305761010080835404028352916020019161185b565b820191906000526020600020905b81548152906001019060200180831161183e57829003601f168201915b50505050509550995099509950995099509950995099505050919395975091939597565b3360009081526008602052604081205460ff16806118a757506000546001600160a01b031633145b6118c35760405162461bcd60e51b81526004016105179061229d565b836000811180156118d657506001548111155b6118f25760405162461bcd60e51b815260040161051790612224565b600084511161193a5760405162461bcd60e51b81526020600482015260146024820152734e616d652063616e6e6f7420626520656d70747960601b6044820152606401610517565b60008581526003602081905260409091209081015442106119b15760405162461bcd60e51b815260206004820152602b60248201527f43616e6e6f74206164642063616e6469646174657320616674657220656c656360448201526a74696f6e2073746172747360a81b6064820152608401610517565b6007810180549060006119c383612284565b909155505060078101546040805160c08101825282815260208082018a81528284018a8152606084018a9052600060808501819052600160a086018190528d825260048552868220888352909452949094208351815590519181019190915591519091906002820190611a369082612361565b5060608201516003820190611a4b9082612361565b506080820151600482015560a0909101516005909101805460ff1916911515919091179055604051819088907f503cfceb0fb2178c5fb47ff394c816e4075abc8066c3dcb16d08a76847ee6e1690611aa6908a908a90612446565b60405180910390a39695505050505050565b606081600081118015611acd57506001548111155b611ae95760405162461bcd60e51b815260040161051790612224565b6000838152600360205260408120600781015490919067ffffffffffffffff811115611b1757611b17611f07565b604051908082528060200260200182016040528015611b8357816020015b611b706040518060c0016040528060008152602001600081526020016060815260200160608152602001600081526020016000151581525090565b815260200190600190039081611b355790505b50905060015b82600701548111611d4f576004600087815260200190815260200160002060008281526020019081526020016000206040518060c00160405290816000820154815260200160018201548152602001600282018054611be7906122de565b80601f0160208091040260200160405190810160405280929190818152602001828054611c13906122de565b8015611c605780601f10611c3557610100808354040283529160200191611c60565b820191906000526020600020905b815481529060010190602001808311611c4357829003601f168201915b50505050508152602001600382018054611c79906122de565b80601f0160208091040260200160405190810160405280929190818152602001828054611ca5906122de565b8015611cf25780601f10611cc757610100808354040283529160200191611cf2565b820191906000526020600020905b815481529060010190602001808311611cd557829003601f168201915b50505091835250506004820154602082015260059091015460ff16151560409091015282611d21600184612271565b81518110611d3157611d31612474565b60200260200101819052508080611d4790612284565b915050611b89565b50949350505050565b80356001600160a01b0381168114611d6f57600080fd5b919050565b600060208284031215611d8657600080fd5b611d8f82611d58565b9392505050565b60008060408385031215611da957600080fd5b50508035926020909101359150565b600060208284031215611dca57600080fd5b5035919050565b6000815180845260005b81811015611df757602081850181015186830182015201611ddb565b506000602082860101526020601f19601f83011685010191505092915050565b602081526000611d8f6020830184611dd1565b60008060408385031215611e3d57600080fd5b82359150611e4d60208401611d58565b90509250929050565b85815260a060208201526000611e6f60a0830187611dd1565b8281036040840152611e818187611dd1565b606084019590955250509015156080909101529392505050565b60006101208b8352806020840152611eb58184018c611dd1565b90508281036040840152611ec9818b611dd1565b60608401999099525050608081019590955292151560a08501526001600160a01b039190911660c084015260e0830152610100909101529392505050565b634e487b7160e01b600052604160045260246000fd5b600082601f830112611f2e57600080fd5b813567ffffffffffffffff80821115611f4957611f49611f07565b604051601f8301601f19908116603f01168101908282118183101715611f7157611f71611f07565b81604052838152866020858801011115611f8a57600080fd5b836020870160208301376000602085830101528094505050505092915050565b60008060008060808587031215611fc057600080fd5b843567ffffffffffffffff80821115611fd857600080fd5b611fe488838901611f1d565b95506020870135915080821115611ffa57600080fd5b5061200787828801611f1d565b949794965050505060408301359260600135919050565b86815285602082015260c06040820152600061203d60c0830187611dd1565b828103606084015261204f8187611dd1565b6080840195909552505090151560a090910152949350505050565b60006101008a83528060208401526120848184018b611dd1565b90508281036040840152612098818a611dd1565b60608401989098525050608081019490945291151560a084015260c083015260e0909101529392505050565b6000806000606084860312156120d957600080fd5b83359250602084013567ffffffffffffffff808211156120f857600080fd5b61210487838801611f1d565b9350604086013591508082111561211a57600080fd5b5061212786828701611f1d565b9150509250925092565b60006020808301818452808551808352604092508286019150828160051b87010184880160005b838110156121d557603f19898403018552815160c081518552888201518986015287820151818987015261218e82870182611dd1565b915050606080830151868303828801526121a88382611dd1565b6080858101519089015260a094850151151594909701939093525050509386019390860190600101612158565b509098975050505050505050565b60208082526021908201527f4f6e6c79206f776e65722063616e2063616c6c20746869732066756e6374696f6040820152603760f91b606082015260800190565b60208082526017908201527f456c656374696f6e20646f6573206e6f74206578697374000000000000000000604082015260600190565b634e487b7160e01b600052601160045260246000fd5b818103818111156106345761063461225b565b6000600182016122965761229661225b565b5060010190565b60208082526021908201527f4f6e6c792061646d696e2063616e2063616c6c20746869732066756e6374696f6040820152603760f91b606082015260800190565b600181811c908216806122f257607f821691505b60208210810361073957634e487b7160e01b600052602260045260246000fd5b601f82111561235c57600081815260208120601f850160051c810160208610156123395750805b601f850160051c820191505b8181101561235857828155600101612345565b5050505b505050565b815167ffffffffffffffff81111561237b5761237b611f07565b61238f8161238984546122de565b84612312565b602080601f8311600181146123c457600084156123ac5750858301515b600019600386901b1c1916600185901b178555612358565b600085815260208120601f198616915b828110156123f3578886015182559484019460019091019084016123d4565b50858210156124115787850151600019600388901b60f8161c191681555b5050505050600190811b01905550565b6060815260006124346060830186611dd1565b60208301949094525060400152919050565b6040815260006124596040830185611dd1565b828103602084015261246b8185611dd1565b95945050505050565b634e487b7160e01b600052603260045260246000fdfea2646970667358221220b8f6e4c9de7a10bd0f3e005affd795ac06f39499fcabef8b3715801bd126e91864736f6c63430008130033",
  "linkReferences": {},
  "deployedLinkReferences": {}
}